:1000000070860020410A0000F9090000F90900008B
:10001000F9090000F9090000F909000000000000DA
:10002000000000000000000000000000F9090000CE
:10003000F909000000000000F9090000F9090000BA
:1000400000210FF2844252F83130834204D2491C1D
:100050000629F8D30020704702EBC10040687047C2
:10006000C0F30722DFF8241280008A1800F47F70A2
:1000700040EA421040F084400121016070472DE9C0
:10008000F84FDFF80C32DFF8005289460246196853
:10009000DFF8F0010140A9424DD002F038001028ED
:1000A000C2F3841B4FF4004ADFF8EC1104D18846F8
:1000B00000274FF00C0B30E0302804D147F23058C5
:1000C0004FF4001727E0382803D1D0464FF48007BB
:1000D00021E012F0380F1BD1ABF1090012282AD20F
:1000E0000FF2C81555F82B80D86F20F01C00BBF11B
:1000F000070FA8BF40F01000D8674FF04C774FF4BF
:1001000000201D6DEC0500F1B980401EF9D112E010
:100110004FF000080027ABF1090B12F4605FDFF825
:100120007C41DFF870617CD112F0380F1CBF02F007
:100130003800102801D000209EE0C2F30260009039
:10014000DFF85C01FFF77CFF30613168DFF85401B4
:10015000014041F00041316000980FF29C3151F8AC
:1001600020103068384349443060491E009AB1FB82
:10017000F9F5D8200FF2A011424388180C2101FB99
:100180000BF142186D1E52686260626842EA0522F5
:1001900062604058216801F4000108432060206833
:1001A00021686268636803F01F03C0F389205B1C49
:1001B000B8FBF3F34FEA501909FB03F5C1F309014A
:1001C0006D09A0EB491001FB0351584301EB90214D
:1001D000C2F30420401CB1FBF0F94FEA590948462C
:1001E000FFF72EFF30612068010204D5316841F02D
:1001F0008041316003E0206840F4000020605046F8
:10020000A168CA0702D4401E0028F9DC30B130686A
:10021000074347F0104747F0010727E04FF0000978
:1002200025E00846FFF70CFF30612168DFF8780011
:1002300021F4000121603168014041F00041B9F131
:10024000000F316008BF002506D0B8FBF9F505B1F5
:100250006D1E681CB8FBF0F94846FFF7F1FE3061EF
:10026000306840EA8520074347F000473760306830
:1002700020F4700030604846BDE8F28F00287FF41B
:100280004AAF58E70000FF700000051000E60F407D
:1002900000E00F40B0E00F400024F40060E10F40A8
:1002A00040787D0100FC0FE0FF0300EF40420F00AB
:1002B00000201C0080841E0000802500999E3600CE
:1002C0000040380000093D0000803E0000004B0067
:1002D000404B4C0000204E00808D5B0000C05D0054
:1002E0000080700000127A0000007D008096980067
:1002F000001BB7000080BB00C0E8CE00647ADA00C3
:100300000024F4000000FA0080A81201002D310141
:1003100000366E0140787D014000000000000000C2
:10032000000100003E000800000000000001000085
:10033000A000000002000000000100003454010091
:1003400000000000000100002B700600000000000B
:100350000001000028000000000000000001000073
:100360002700010000000000000100002000000044
:10037000000000000001000050000000020000002A
:10038000000100001AAC00000000000000010000A5
:1003900017940900000000000001000016980500F5
:1003A0000000000000010000140000000000000038
:1003B00000010000138008000000000000010000A0
:1003C000A000000008000000000100001000000074
:1003D00000000000000100002800000002000000F2
:1003E00000010000400000000400000000010000C7
:1003F0006000000000000000000100005D000C0033
:10040000000000000001000050000000000000009B
:10041000000100004E00020000000000000100008A
:1004200041AC010000000000000100003C000000A1
:1004300000000000000100003A80090000000000F8
:10044000000100003000000000000000000100007A
:10045000280000000000000000010000270001004B
:100460000000000000010000236006000000000002
:1004700000010000216008000000000000010000F1
:100480001E00000000000000000100001DC004006C
:100490000000000000010000500000000200000009
:1004A0000001000018000000000000000001000032
:1004B00014000000000000000001000060000000C7
:1004C00004000000000100000024F40030003000AF
:1004D000005A62029100910000879303D200D2007B
:1004E00000B4C4041301130100E1F50554015401E3
:1004F000000E27079501950100688909001C4E0E22
:10050000F0B5284D284A2E68284F0C2416400FF2CB
:10051000EC03BE4204BF0FF244130824002200E0A3
:10052000521CA2420BD253F832508542F8D103EB51
:10053000C200B1F57F4F406802D1401CF0BD0020E1
:10054000F0BD50F80C3F40F20112114032E0F0B51E
:1005500000F10C03164A1C68124D144F14401C6025
:100560000A0E026000F108032E680F4A001D1640B3
:10057000BE4201F0FF040BD10D0905F470452C4378
:1005800044F4007404604FF2FF0000EA112004E01C
:1005900044F400740460C1F3072040F40070186054
:1005A000F0BD000000E00F400000FF7000000A10E6
:1005B000FEFEFFFF1943016070470B061CBF00F1F0
:1005C00028031A6011F47F4F18BF40F82C2F704792
:1005D00038B51446FFF794FF0546214600F066F84B
:1005E0002846BDE8324000F075B850F8182F114386
:1005F0000160704740F8241F70470000000003406E
:1006000023000000001003402500000000200340EC
:10061000270000000030034033000000004003408A
:1006200056000000005003406C00000000600340D2
:100630006E000000007003407000000000C0044025
:100640007200000000D004407400000000E004408C
:100650007600000000F00440780000000000034035
:10066000230000000010034025000000002003408C
:10067000270000000030034033000000004003402A
:100680004F000000005003405100000000000E40E9
:100690007200000000100E407400000080B500F0F1
:1006A00057F8FFE700B10120C0B202BDF0B51F4C02
:1006B0001F4A256895420AD02568002605EB860763
:1006C0003F6842F82670761C9B2EF7D3226042F8D2
:1006D0002010F0BD0428174903D1086840F4803089
:1006E0000BE0052804D10A6842F400320A60704722
:1006F000062804D1086840F48020086070470F285D
:1007000005D10D48016841F00201016070470CD924
:100710000FF22803A0F110011038400953F820000F
:10072000012201F01F018A400260704708ED00E0DD
:100730000004002024ED00E010E000E000E100E013
:1007400004E100E008E100E00CE100E010E100E07D
:10075000EFF3108062B6704730B5CB4300F580648C
:10076000D50725684CBF0D431D40256000F584600A
:10077000920747BF0268114301681940016030BD0C
:10078000F0B5002400F6C4750126A640314211D010
:1007900066002F684FF0030C0CFA06FC27EA0C07E2
:1007A0002F60C2F34117D5F800C007FA06F646EAF3
:1007B0000C062E60641C082CE6DBCC4300F5A0651B
:1007C000D6072E684CBF0E4326402E6000F204551B
:1007D00096072E684CBF0E4326402E6000F5A1659B
:1007E00056072E684CBF0E4326402E6000F5A365C9
:1007F00016072E684CBF0E4326402E6000F23C5573
:10080000D2062A684CBF0A4322402A60DD0700F264
:100810000C5215684CBF0D432540156000F5A262CF
:100820009D0715684CBF0D432540156000F214521A
:100830005D0715684CBF0D432540156000F21C5242
:100840001D0715684CBF0D432540156000F244524A
:100850009D0515684CBF0D432540156000F5A86245
:1008600013F4407F156814BF0D432540156000F553
:10087000A560002B07BF026841EA020401680C4032
:100880000460F0BD00EB81000068704700EB810060
:100890000260704738B504460D460823FFE7012281
:1008A000FFF76EFF29462046BDE83840012253E796
:1008B00038B523492348244C244DFFF7E0FB206042
:1008C0002348FFF7CDFB01212248FFF7E3FF224831
:1008D000FFF7C6FB22212846FFF739FE20680A21D0
:1008E000B0FBF1F2521EFF212846FFF766FE012100
:1008F0002846FFF77AFE2320FFF7ECFEFFF7CEFE37
:100900000FF21502FF212846FFF762FEFF2128465D
:10091000FFF717FEFEE7000010B501210B480D4C54
:10092000FFF768FE01212046FFF7ACFF00282046B4
:10093000BDE8104014BF0022FF220121FFF7A6BF2F
:10094000000E2707800600F1000000200000034091
:100950000C0800F000400640000400F019E050F8D8
:10096000042BD30744BFA9F101039A18091F0023E0
:10097000042942F8043BF9D25FEA817C134604D58E
:100980004FF0000CA2F800C09B1CC90744BF002117
:10099000197050F8041B0029E1D1704710B50749C0
:1009A00079441831064C7C44163404E00A68081D6A
:1009B000114488470146A142F8D110BD2C00000027
:1009C000380000004EF68851CEF20001086840F46D
:1009D00070000860BFF34F8FBFF36F8F4FF0007050
:1009E000E1EE100A7047000075FFFFFF04000000F1
:1009F0000000002000000000FEE7000000F00BF8FF
:100A0000002801D0FFF7CAFF0020AFF30080FFF7F6
:100A10004FFF00F002F80120704700F001B800001D
:100A20000746384600F002F8FBE7000080B5AFF358
:100A30000080024A11001820ABBEFBE7260002002E
:0C0A4000AFF30080FFF7BEFFFFF7D8FF08
:0400000500000A41AC
:00000001FF
